:020000040000fa
:080000000001040000000000f3
:020000040000fa
:04000800660200008c
:020000040000fa
:04000c006602000088
:020000040000fa
:040010006602000084
:020000040000fa
:040014006602000080
:020000040000fa
:04001800660200007c
:020000040000fa
:04001c006602000078
:020000040000fa
:040020006602000074
:020000040000fa
:040024006602000070
:020000040000fa
:04002800660200006c
:020000040000fa
:04002c006602000068
:020000040000fa
:040030006602000064
:020000040000fa
:04003400c8010000ff
:020000040000fa
:04003800660200005c
:020000040000fa
:04003c006602000058
:020000040000fa
:040040006602000054
:020000040000fa
:040044006602000050
:020000040000fa
:04004800660200004c
:020000040000fa
:04004c006602000048
:020000040000fa
:040050006602000044
:020000040000fa
:040054006602000040
:020000040000fa
:04005800660200003c
:020000040000fa
:04005c006602000038
:020000040000fa
:040060006602000034
:020000040000fa
:040064006602000030
:020000040000fa
:04006800660200002c
:020000040000fa
:04006c006602000028
:020000040000fa
:040070006602000024
:020000040000fa
:040074006602000020
:020000040000fa
:04007800660200001c
:020000040000fa
:04007c006602000018
:020000040000fa
:040080006602000014
:020000040000fa
:040084006602000010
:020000040000fa
:04008800f80100007b
:020000040000fa
:04008c006602000008
:020000040000fa
:040090006602000004
:020000040000fa
:040094006602000000
:020000040000fa
:0400980066020000fc
:020000040000fa
:04009c0066020000f8
:020000040000fa
:0400a00066020000f4
:020000040000fa
:0400a40066020000f0
:020000040000fa
:0400a80066020000ec
:020000040000fa
:0400ac0066020000e8
:020000040000fa
:0400b00066020000e4
:020000040000fa
:0400b40066020000e0
:020000040000fa
:0400b80066020000dc
:020000040000fa
:0400bc0066020000d8
:020000040000fa
:0400c00066020000d4
:020000040000fa
:0400c40066020000d0
:020000040000fa
:0400c80066020000cc
:020000040000fa
:0400cc0066020000c8
:020000040000fa
:0400d00066020000c4
:020000040000fa
:0400d40066020000c0
:020000040000fa
:0400d80066020000bc
:020000040000fa
:04010800660200008b
:020000040000fa
:04010c006602000087
:020000040000fa
:040110006602000083
:020000040000fa
:04011400660200007f
:020000040000fa
:04011800660200007b
:020000040000fa
:04011c006602000077
:020000040000fa
:040120006602000073
:020000040000fa
:04012400660200006f
:020000040000fa
:04012800660200006b
:020000040000fa
:04012c006602000067
:020000040000fa
:040130006602000063
:020000040000fa
:04013400c8010000fe
:020000040000fa
:04013800660200005b
:020000040000fa
:04013c006602000057
:020000040000fa
:040140006602000053
:020000040000fa
:04014400660200004f
:020000040000fa
:04014800660200004b
:020000040000fa
:04014c006602000047
:020000040000fa
:040150006602000043
:020000040000fa
:04015400660200003f
:020000040000fa
:04015800660200003b
:020000040000fa
:04015c006602000037
:020000040000fa
:040160006602000033
:020000040000fa
:04016400660200002f
:020000040000fa
:04016800660200002b
:020000040000fa
:04016c006602000027
:020000040000fa
:040170006602000023
:020000040000fa
:04017400660200001f
:020000040000fa
:04017800660200001b
:020000040000fa
:04017c006602000017
:020000040000fa
:040180006602000013
:020000040000fa
:04018400660200000f
:020000040000fa
:04018800f80100007a
:020000040000fa
:04018c006602000007
:020000040000fa
:040190006602000003
:020000040000fa
:0401940066020000ff
:020000040000fa
:0401980066020000fb
:020000040000fa
:04019c0066020000f7
:020000040000fa
:0401a00066020000f3
:020000040000fa
:0401a40066020000ef
:020000040000fa
:0401a80066020000eb
:020000040000fa
:0401ac0066020000e7
:020000040000fa
:0401b00066020000e3
:020000040000fa
:0401b40066020000df
:020000040000fa
:0401b80066020000db
:020000040000fa
:0401bc0066020000d7
:020000040000fa
:0401c00066020000d3
:020000040000fa
:0401c40066020000cf
:020000040000fa
:0401c80066020000cb
:020000040000fa
:0401cc0066020000c7
:020000040000fa
:0401d00066020000c3
:020000040000fa
:0401d40066020000bf
:020000040000fa
:0401d80066020000bb
:020000040000fa
:100200000f8020000eff20000e018800000000007b
:10021000000020000000e000020032000001200089
:100220002002880014000700aa0007000000e00078
:1002300003003a0000002000010020000200370007
:100240000000200001002000810f7000010032003a
:1002500014000700000020000000e000020032004f
:1002600000000200000000008c03020000000000fb
:100270000040da000000fe004440a9000000200019
:100280000000e0000300320000002000a001880010
:100290004440a800000006008a1f78008b1f7800e9
:1002a0000000060091018800800478000000eb0047
:1002b0001a003700e284440032a0b4009905ba0065
:1002c000e284440032a0b4009906ba00e2844400fb
:1002d00032a0b4000006eb00476fde00fd07b2005d
:1002e000636ce10003003a00ebff07000000eb0045
:1002f0000a003700606ce10004003a00005deb008a
:100300008b05e900fdff3e00040037006168e10055
:10031000010032000086eb000b00070019c7ba008d
:100320001905ba000e04e00003003a000a00e000dc
:10033000e0ff3a0000000600fe07b2009e018800c0
:100340008a047800f5ff3700395dba008b05e900b3
:100350000c003200295dba008b05e900080032006c
:100360000c00e00003003a00e284440032a0b40034
:10037000f5ff370019ddba008b05e900faff3a00f6
:100380008904e800e184440032a0b40000000600c3
:10039000809fbe00821f78000000fa00a02c200081
:1003a000a12c20009100780081407800e1c060001d
:1003b0000104a200e1c060008180fb00e1806000d8
:1003c000100178000200a10082807000010878000e
:1003d00040082000900078000130a100010878005a
:1003e0000080fa004f0178004f00be000040060078
:1003f000809fbe00821f78000400fa00c0108000b9
:10040000620060000000e000010032001822a90034
:10041000c0108000640060000000e00026003a0088
:10042000c0108000680060000000e00022003a0078
:10043000e0108000004f7800a02c2000a12c2000ac
:10044000910078008100d100e1c060000104a200a9
:10045000e1c060008180fb00e1806000818040009d
:10046000100178000210a10082807000010878005d
:100470001e00fb000003b100100798001e00900052
:10048000e10f500005003a00a02c200090007800f9
:100490000120a00001087800070037001e0090002e
:1004a0000000e00004003a00a02c2000900078003a
:1004b0000120a100010878008700a9000080fa004f
:1004c0004f0178004f00be00004006000040da00f7
:0804d0000000fe000000050021
:020000040000fa
:1004d8000000fa00401020008000eb0001087800be
:1004e800c00820008000eb00010878000010200000
:1004f8008000eb0001087800401020004110200027
:10050800910078000110a10001087800400920003e
:10051800100178000100270082807000010878002f
:1005280040082000900078000130a1000108780000
:10053800c0082000900078000130a0000108780071
:1005480020102000510727000108780040102000e3
:100558004110200011017800010320008280700002
:100568000108780040102000411020009100780018
:1005780001f0a000010878000080fa0000000600e1
:100588000000fa00602c200001ff2f00010878000d
:100598000080fa00000006000000fa006021200038
:1005a800612120009100780001f0a1000108780085
:1005b800e0082000900078000180a1000108780080
:1005c800e0082000900078000190a1000108780060
:1005d80060082000900078000180a10001087800e0
:1005e80060082000900078000190a10001087800c0
:1005f800e0082000900078000180a0000108780041
:10060800e0212000d1282000010878006021200086
:10061800612120009100780001d0a0000108780035
:100628006021200061212000910078000170a10064
:1006380001087800602120006121200091007800e5
:100648000160a100010878006021200061212000dc
:10065800910078000150a100010878006021200075
:1006680061212000910078000108780060212000b5
:1006780061212000910078000100a10001087800a4
:1006880060212000612120009100780001f0a00085
:100698000108780080212000812120009100780045
:1006a80001f0a100010878008021200081212000ac
:1006b8009100780001b0a100010878008021200095
:1006c800812120009100780001a0a0000108780095
:1006d8008021200081212000910078000160a00085
:1006e80001087800802120008121200091007800f5
:1006f8000150a100010878008021200090007800b6
:100708000110a100010878000080fa00000006002e
:100718000000fa009aff07009fff07006cff070020
:10072800a02c2000900078000130a000010878007b
:04073800ffff370088
:020000040000fa
:0200000401f009
:040000000f8100006c
:020000040000fa
:0200000401f009
:040004003f000000b9
:020000040000fa
:0200000401f009
:04000800b0870000bd
:020000040000fa
:0200000401f009
:04001400ffffff00eb
:00000001FF
